:100000000C942A000C9434000C9434000C943400AA
:100010000C9434000C9434000C9434000C94340090
:100020000C9434000C9434000C9434000C94340080
:100030000C9434000C9434000C9434000C94340070
:100040000C9434000C9434000C9434000C94340060
:100050000C94340011241FBECFE5D8E0DEBFCDBF25
:100060000E9436000C9450000C9400008FEF8ABB65
:1000700084E08BBB8EEF87BBB09B08C08BB38F3007
:1000800011F41BBA03C08BB38F5F8BBB2FE38DE0E2
:1000900093E0215080409040E1F700C00000ECCF99
:0400A000F894FFCF02
:00000001FF
