S0180000496E746572727570744578616D706C652E7372656373
S11300000C942A000C9434000C9434000C943400A6
S11300100C9434000C9434000C9434000C9434008C
S11300200C9434000C9434000C9434000C9434007C
S11300300C9434000C9434000C9434000C9434006C
S11300400C9434000C9434000C9434000C9434005C
S11300500C94340011241FBECFE5D8E0DEBFCDBF21
S11300600E9436000C945A000C9400008FEF8ABB57
S11300701BBA8CEF87BB9FE0B09B08C08BB38F305B
S113008011F41BBA03C08BB38F5F8BBBB19B08C049
S11300908BB3811102C09BBB03C08BB381508BBB5C
S11300A02FE73AE186E0215030408040E1F700C07C
S10B00B00000E2CFF894FFCF39
S9030000FC
