:100000000C942A000C9434000C9434000C943400AA
:100010000C9434000C9434000C9434000C94340090
:100020000C9434000C9434000C9434000C94340080
:100030000C9434000C9434000C9434000C94340070
:100040000C9434000C9434000C9434000C94340060
:100050000C94340011241FBECFE5D8E0DEBFCDBF25
:100060000E9436000C944E000C94000081E084BB8A
:1000700015BA8EEF87BB91E0B09B06C085B3813087
:1000800011F095BB01C015BA2FE73AE186E0215087
:1000900030408040E1F700C00000EECFF894FFCF81
:00000001FF
