S0180000496E746572727570744578616D706C652E7372656373
S11300000C942A000C943E000C946C000C943C005C
S11300100C943C000C943C000C943C000C943C006C
S11300200C943C000C943C000C943C000C943C005C
S11300300C943C000C943C000C943C000C943C004C
S11300400C943C000C943C000C943C000C943C003C
S11300500C943C0011241FBECFE5D8E0DEBFCDBF19
S113006020E0A0E6B0E001C01D92A136B207E1F79E
S11300700E9496000C94A5000C9400001F920F920D
S11300800FB60F9211242F938F939F93809160004A
S11300908F5F8093600080916000803110F0109237
S11300A06000809160008F70809360008091600098
S11300B08BBB2FE986E891E0215080409040E1F726
S11300C000C000008FEF8ABF9F918F912F910F90F6
S11300D00FBE0F901F9018951F920F920FB60F929C
S11300E011242F938F939F9380916000815080936C
S11300F0600080916000809160008F708093600048
S1130100809160008BBB2FE986E891E0215080400C
S11301109040E1F700C000008FEF8ABF9F918F915C
S11301202F910F900FBE0F901F9018958FE0809322
S113013060008FEF8ABB809160008BBB80EC8BBF2B
S111014085B78A6085BF7894FFCFF894FFCF0F
S9030000FC
